:400000000010002011000000D5030000D503000010B500F0FFF9C04610B51B4C23688022D20213432360182000F07CFB2268174B13402360164A174B1A601122164B1A606B
:400040000F32164B1A600132154B1A600F32154B1A60203A144B1A6082221206134B1A60002323601249134A11601349134A11601349144A11601449144A11601449154A69
:400080001160154A136010BD00010B40FFFFFBFF0600008004010B400C0202401C02024020020240240202402802024008010B40010000800000024007000080400002400E
:4000C0000B00008080000240CF00008004000240BF120080440002400C020B4010B572B600240FE02A486200131959000B00411889881A5AC31858880004104300F04AF967
:400100000134E4B2012CEDD921490C312148243000F026F999231B041F4A1360EE2109021E4A11601E4A13601E4A13601E4A13601E4A13602F221E4B1A601E490B780D321B
:40014000934314221343DBB20B701B4A117816230B43DBB213702023184A13601849194A1160194A1360194A194B1A600123194A13608021C902184A1160184A1360184ABC
:40018000184B1A60FFF748FF00F01AF910BDC0469415000014160000000001400C00014000500F4010500F4020500F4030500F40A001054001700F4000700F400000044069
:4001C000801D070008000440180004404010180008010440000204400802044018020440891D04000803044010B5064C2378002B07D1054B002B02D0044800E000BF012302
:40020000237010BD400100200000000074150000084B10B5002B03D00749084800E000BF07480368002B00D110BD064B002BFBD09847F9E7000000004401002074150000A8
:40024000C00000200000000010B506220A4B1A800A4C23680133236000F0AEF980B2A08000F08CF9002000F097F900F0EBF9022000F0F8F910BDC0468C0100205C01002058
:4002800070B58AB00321002000F01AFB2E49002000F06CFB0121002000F02EFB012000F045FB002000F0FAFA0028FAD0274800F007FA62B600F0C6F900F050F900F0BAFB01
:4002C0000026234B9B889BB2224A934206D8204B9B889BB2002B03D1002402E0002400E001241B4A93889BB202961B4D2988019192890092194A232105A800F0FDFC05A82B
:4003000000F00CFC2B885A1E2A80002B05D10022114B1A800025012400E0012560426041C0B200F067FB68426841C0B200F056FB012000F047FB082000F034FB96204000EA
:4003400000F0CEF90136BCE700710200490200005C010020371300008C01002078150000F0B50025002711E0BB00C658F3B2FF22964308E06A008A181478A419527822703A
:400380000135013BDBB2002BF4D10137062FEBD9F0BDC04610B50A00002100F0A5FC10BD064B1B68002803D080221206134301E05B005B08014A13607047C04680031A4046
:4003C00010B50122024B1A600120FFF7E9FF10BD00031A4010B500F05BFC03680C2B00D1FEE7FEE710B50300084A1068C318084A9A1A802A02DC054A136005E000F048FC06
:400400000C2303600120404210BDC046C40000209801002070B50F4E0F4D13E029686B68AC68002202E001C901C30432A242FAD1E868002202E0002102C304328242FAD158
:400440001035013E002EE9D100F028FCFFF718FFFEE7C04601000000DC16000010B500230AE0032B03D89A000949505800E009489900094A885001332F2BF2D9FFF72EFE32
:400480008022D205116801230B43136010BDC04600000000D5030000000000200004000C014B18607047C046480105400004000C014B18607047C046540105400004000C40
:4004C000014B18607047C0464C01054070B504000D0000F03BFBAC40024B1C6000F03AFB70BDC0460800054010B500F02FFB064A116802230B43136000F02CFB1821022033
:40050000FFF7E4FF10BDC04600000540014B18607047C0467801054010B50D4C8023DB042360236823600020FFF7B8FF236823600C22084B1A600120FFF7E8FF3122064BE2
:400540001A600220FFF7B2FF0120FFF7B7FF10BD40010540640105406801054010B5064B1B78002B04D1FFF7D7FF0122024B1A70FFF7BAFF10BDC0467201002010B500F087
:40058000E5FA044A136804218B43136000F0E2FA10BDC046000005400004000C014B18607047C046880105400004000C014B18607047C04694010540024B18680004000CA2
:4005C0007047C0468C01054070B504000D0000F0BDFAAC40024B1C6000F0BCFA70BDC0460800054010B500F0B1FA064A116804230B43136000F0AEFA18210420FFF7E4FFD5
:4006000010BDC04600000540014B18607047C046B801054010B580229204074B1A600E22064B1A600220FFF7EFFF0548FFF7BCFF0020FFF7B1FF10BD80010540A401054018
:40064000FFFF000010B5064B1B78002B04D1FFF7E1FF0122024B1A70FFF7C4FF10BDC04673010020014B18607047C046B00105408823014AD05070470000002010B50400B6
:4006800000F064FA044A1168044B0B40A4051C43146000F05FFA10BD10E400E0FFFF3FFF8022D202014B1A607047C04600E100E08022D202014B1A607047C04680E100E0F5
:4006C00010B50400FFF7F4FF2000FFF7D1FF0320FFF7D4FFFFF7E4FF10BDC04601BE704710B5040006E0084B586800F025FA074B9C46644480231B029C42F4D8024B9868F0
:40070000604300F019FA10BDC80000200080FFFF10B5034B1B7B584300F00EFA10BDC046C8000020F0B557464E46C0B483B0040000F00CFA0190E71E2D2F74D83F4B1B7817
:40074000DBB29C4208D83E4B1B78DBB29A463D4B1B78DBB2994631E03B4B1B78DBB29C4208D83A4B1B78DBB29A46394B1B78DBB2994623E0374B1B78DBB29C4208D8364BBD
:400780001B78DBB29A46354B1B78DBB2994615E0334B1B78DBB29C4208D8324B1B78DBB29A46314B1B78DBB2994607E02F4B1B78DBB29A462E4B1B78DBB299462D4BDE5DE5
:4007C0002F2E09D92A2C07D919222B4B1A60052000F0B2F9192503E0274B1D683F231D40B54206D9234BDA5D234B1A60052000F0A3F91F4B9C4664442378DBB21F4A1360B6
:400800001F4B52461A601F4B4A461A600520FFF77FFFB5420AD2174BDA5D174B1A60052000F08AF902E00020FFF758FF019800F091F903B00CBC91469A46F0BDC0F1FF0F4F
:40084000C1F1FF0FC2F1FF0FC3F1FF0FC4F1FF0FC5F1FF0FC6F1FF0FC7F1FF0FC8F1FF0FC9F1FF0FCAF1FF0FCBF1FF0FCCF1FF0FCDF1FF0F541600002CFF0B4028FF0B4018
:400880001CFF0B4020FF0B40034A1368802109060B4313607047C04604010B4010B50400022802D90020FFF719FF044B1868E4000134E0400123184010BDC04610020B4072
:4008C00070B504000D00022802D90020FFF706FF2000FFF7E3FF00280AD1064A1368E40003210800A04083430D40A5401D43156070BDC0460C020B4070B504000D00012834
:4009000002D90020FFF7EAFE2000FFF7C7FF002809D105490B68E40002340122A2409343A5401D430D6070BD0C020B4010B50400FFF7AAFF0C4A136823431360E30704D53D
:400940000020FFF7ABFF0028FAD0E30504D50120FFF7A4FF0028FAD0E30304D50220FFF79DFF0028FAD010BD10020B4070B505000C00012802D90020FFF7B0FEC920FFF7EC
:40098000C7FE06490B682D01054AAA409343AC401C430C604320FFF7BBFE70BD08020B40FFFF0000054A1168054B184008431060024B1A68024B1A42FAD1704710020B40A8
:4009C0000808080004490A68D2B208239A43C00018401043086070470000044004490A68D2B204239A43800018401043086070470000044004490A68D2B240239A438001ED
:400A000018401043086070470001044010B500F06FF810BD10B500F01DF810BD10B5044A1368802109060B431360FFF7EFFF10BD0000074010B5064B1B78002B04D1FFF791
:400A4000E9FF0122024B1A70FFF7E8FF10BDC04674010020134A144B1A600023134A13601349144A1160144A14490A6007201449086014490B6006381349086013490A605A
:400A8000134A1360134A1360134A1360134A1360134A1360134A1360134A13601268134B1A8070470B000002000007404000074001000A0048000740070000800003074017
:400AC0000403074010030740440007400002074004020740880E0740C80E0740480F0740080F0740C80F0740880F074076010020064A1168064B0B40902109040B431360C0
:400B0000044B1A88044B1A607047C04600000140FFFF0FFF76010020880F074070B50500002402E000F01AF80134285D0028F9D170BDC046000000000230800804D0C046D7
:400B40000138FDD1C046C046C0467047EFF3108072B6704780F310887047C046044B1B680F221340082BF9D0024B18607047C0460802074040020740002243088B4274D35D
:400B800003098B425FD3030A8B4244D3030B8B4228D3030C8B420DD3FF22090212BA030C8B4202D31212090265D0030B8B4219D300E0090AC30B8B4201D3CB03C01A524136
:400BC000830B8B4201D38B03C01A5241430B8B4201D34B03C01A5241030B8B4201D30B03C01A5241C30A8B4201D3CB02C01A5241830A8B4201D38B02C01A5241430A8B420D
:400C000001D34B02C01A5241030A8B4201D30B02C01A5241CDD2C3098B4201D3CB01C01A524183098B4201D38B01C01A524143098B4201D34B01C01A524103098B4201D340
:400C40000B01C01A5241C3088B4201D3CB00C01A524183088B4201D38B00C01A524143088B4201D34B00C01A5241411A00D20146524110467047FFE701B5002000F006F8D1
:400C800002BDC0460029F7D076E770477047C046014B18687047C0463C0100200E4B70B500251E000D4CE41AA410A54204D0AB00F35898470135F8E700F0FEFC084B0025F5
:400CC0001E00084CE41AA410A54204D0AB00F35898470135F8E770BDC4160000C4160000C4160000CC16000003008218934202D019700133FAE770470CB430B5164B9DB0A2
:400D00000C1E1D6804DA8B2301202B6040421DE0822302A99B008B810023029008619C4200D0631E8B604B6101235B42CB81209A21AB2800019300F073F8431C01DA8B23E0
:400D40002B60002C02D00023029A13701DB030BC08BC02B01847C0463C010020F0B58E6885B007000C00039201939E4243D890238A89DB001A423ED00325096923680198E7
:400D80005B1A029363695D43EB0F5D19029B6D1001331B18AB4200D91D00530510D52900380000F041FB061E14D0029A216900F0D0FAA289194B134080221343A38112E047
:400DC0002A00380000F090FB061E0CD12169380000F0DEFA0C23402201203B60A38940421343A38117E0029B2661F61826606561019EED1AA560019BB34200D21E00320043
:400E00000399206800F0AEFA0020A3689B1BA36023689E19266005B0F0BDC0467FFBFFFFF0B59FB0029005938B890F0016001B0610D50B69002B0DD1402100F0F5FA3860B8
:400E40003861002804D10C23029A01381360D8E040237B61002306AD6B6120336B761033AB7634002378002B03D1A31B049312D003E0252BF9D00134F4E7A31B32003900FA
:400E80000298FFF76BFF431C00D1B4E06A69049B944663446B612378002B00D1ABE00122002352426A6002A95432521801342B60EB60AB601370AB65534E2178052230001A
:400EC00000F03CFA002807D00123801B83402A68013413432B60EFE72B68DA0604D55322202102A8121811701A0704D553222B2102A81218117022782A2A03D0099B0020E1
:400F00000A210EE0059A111D12680591002A01DB099204E05242EA60022213432B6001340BE02278303A092A04D84B4301349B180120F6E7002800D0099323782E2B1ED135
:400F400063782A2B0AD1059B02341A1D1B680592002B01DA01235B42079310E000230A201A0001346B6021783039092904D84243013452180123F6E7002B00D00792234E4D
:400F800021780322300000F0D9F9002806D04023801B83402A68013413432B60217806221B48661C297600F0C9F9002812D0194B002B06D10722059B073393430833059307
:400FC00014E005AB00933A00134B2900029800E000BF07E005AB00933A000F4B2900029800F08AF80390039B013304D06B69039A9B186B6135E7BB890B985B0601D5012049
:4010000040421FB0F0BDC046841600008A1600008E160000000000005D0D0000F7B5170001938A680B6900900C00934200DA130022003B6043321278002A01D001333B60C3
:4010400023689B0602D53B6802333B60062523681D401ED0230043331B785A1E9341226892061CD53020E1184331087021005A1C45310978A2184332023311700FE02200B5
:401080000123193201990098089EB047431C0ED00135E3683A689B1A9D42F0DBDAE72200019943320098089DA847431C02D10120404220E006232068E1683A68034000253C
:4010C000042B03D18D1AEB43DB171D40A3682269934201DD9B1AED180027BD420AD0220001231A3201990098089EB047431CDED00137F2E70020FEBDF0B58BB006920A00EA
:4011000043320793059004920A7E0C00109B6E2A00D1ABE011D8632A22D009D8002A00D1B5E0582A00D0C5E045310A70814A4FE0642A1DD0692A1BD0BCE0732A00D1AAE0FB
:4011400009D86F2A29D0702A00D0B3E0202209680A43226037E0752A1FD0782A33D0A9E00E001A684236111D196013683370A4E021681A68080606D4490604D5111D196097
:401180000023D55E02E0111D19601568002D3BDA2D23049A6D42137036E021681A68080606D4490604D51568111D1960ADB202E0111D196015685F4B227E039308276F2A0F
:4011C0001DD00A271BE022007821453211705A4A19680392081D226818600D68100602D4500600D5ADB2D30702D520231A4322601027002D03D1202322689A4322602300FD
:40120000002243331A7002E00A274A4B03936368A360002B09DB0422216891432160002D05D1049E002B11D07BE0002D79D0049E28003900FFF726FD039B013E5B5C280013
:4012400033703900FFF798FC051EF1D1082F09D12368DB0706D563682269934202DC3023013E3370049B9B1B23612BE009681A68080607D4490605D5111D19601368A28A55
:401280001A8004E0111D1960136862691A600023049E236116E01A68111D1960166800216268300000F04AF8002801D0801B6060636803E026004236327001232361002309
:4012C000049A1370079B09AA00932100069B0598FFF7A4FE431C02D10120404227E02369320006990598079DA847431CF4D0236800259B070FD4099BE068984217DA18005E
:4013000015E022000123193206990598079EB047431CE1D00135E368099A9B1A9D42F0DBE9E72600039B42361B7833708EE70BB0F0BDC04695160000A6160000C9B282181B
:40134000904204D003788B4202D00130F8E700207047002310B59A4203D0CC5CC4540133F9E710BD10B5884202D98B18984201D3002305E09B1A013A08D3995C8154FAE7D5
:40138000934203D0CC5CC4540133F9E710BD000070B50500002944D00C1F2368002B00DAE418280000F0D8F81E4A13681100002B02D16360146031E0A3420DD92268A01817
:4013C000834203D118685B688218226063600C6024E0A24203D813005A68002AF9D11E689819A0420BD12168711858181960824214D110685268411819605A600EE0A04213
:4014000002D90C232B6009E021686018824203D1106852684118216062605C60280000F09CF870BD7C010020032370B5CD1C9D43083506000C2D01D20C2501E0002D01DB17
:40144000A94202D90C23336048E0300000F084F8234B1C681A002100002913D00B685B1B0DD40B2B02D90B60CC181EE08C4202D1636813601AE04B6863600C0016E00C0062
:401480004968E9E7174C2368002B03D1300000F051F820602900300000F04CF8431C18D00323C41C9C43A0420DD12560300000F054F8200007220B30231D9043C31A0ED019
:4014C0005A42E2500BE0211A300000F033F8431CEBD10C233000336000F03FF8002070BD7C01002078010020F8B506000C001500002904D11100FFF797FF040018E0002A61
:4015000003D1FFF745FF2C0012E000F027F885420ED929003000FFF787FF071E07D021002A00FFF716FF21003000FFF731FF3C002000F8BD002370B5064C050008002360E9
:40154000FEF750FF431C03D12368002B00D02B6070BDC04694010020704770470B1F1A68101F002A04DA891804390B68D018043870470000000000004441544120202535CA
:40158000642025356420253364202534640A20202020000000300F40000400400F4000048610E202822086018A048C558EAA924096089A109E80A202A40FA6F0A833AACCD0
:4015C000B4FFBE10D804DB04DF0102980301080A0B0910281302192068286B0183038520870488028A888C089A10C00FC20FC40EE0A0E6090B08C24003040B204F408304BB
:4016000087408B149308C040C210D220E080E6400A048604C2020108050209800B801C206810818085028B408D08C00CC20AC604DA02E202E601000002310F4013320F4024
:4016400015330F4002400F400C410F4003420F4010430F40030405060708090A0B0C0E0F101112131415161718191B1C1D1E1F2021222325262728292A2B2E2F30313233E9
:4016800034354300232D302B2000686C4C00656667454647003031323334353637383941424344454600303132333435363738396162636465660000F8B5C046F8BC08BC60
:4016C0009E467047110200005D040000F8B5C046F8BC08BC9E467047E9010000F0160000C00000208000000058000000000000000000000098010020010000000000E02EA5
:40170000C05D00001800000000366E010000000000000000000000000000000000000000000000000000000000000000821600000000000000000000000000000000000037
:401740000000000000000000000000000000000000000000000000000000000000000000000000000000000000000000DC000020000000000000000000000000000000006D
:401780000000000000000000000000000000000000000000000000000000000000000000000000000000000000000000000000000000000000000000000000000000000029
:4017C00000000000000000000000000000000000000000000000000000000000000000000000000000000000000000000000000000000000000000000000000000000000E9
:4018000000000000000000000000000000000000000000000000000000000000000000000000000000000000000000000000000000000000000000000000000000000000A8
:401840000000000000000000000000000000000000000000000000000000000000000000000000000000000000000000000000000000000000000000000000000000000068
:0200000490303A
:020000006CF0A2
:0200000490402A
:200000000000000000000000000000000000000000000000000000000000000000000000E0
:0200000490501A
:0C000000000204C81193110104CF7E839C
:0200000490600A
:0100000001FE
:00000001FF